:020000040800F2
:1000000070CA002045010008C52D0008391F0008EE
:10001000C12D0008010A00087173000800000000EB
:10002000000000000000000000000000E95F000880
:10003000291A000800000000513100085969000821
:100040005F0100085F0100085F010008FD3500083E
:100050005F0100085F0100085F0100085F01000800
:100060005F0100085F0100085F0100085F010008F0
:100070005F0100085F0100085F0100085F010008E0
:100080005F0100085F0100085F0100085F010008D0
:10009000717200085F0100085F0100085F0100083D
:1000A0005F0100085F0100085F0100085F010008B0
:1000B0005F0100085F010008256A00085F01000871
:1000C0005F0100085F0100085F0100085F01000890
:1000D0005F0100085F010008196E00085F01000859
:1000E0005F0100085F010008957000085F010008CB
:1000F0005F0100085F0100085F0100085F01000860
:100100005F0100085F0100085F0100085F0100084F
:100110005F0100085F0100085F0100085F0100083F
:100120005F0100085F0100085F0100085F0100082F
:10013000DFF80CD000F0CCFB00480047F59D00082C
:1001400070CA00200648804706480047FEE7FEE7E1
:10015000FEE7FEE7FEE7FEE7FEE7FEE7FEE7FEE777
:10016000C5690008310100082DE9F05F054600204F
:1001700092469B4688460646814640241BE0284618
:1001800041464746224600F06BFA53465A46C01A8B
:10019000914110D311461846224600F052FA2D1A0A
:1001A00067EB01084F4622460120002100F049FA82
:1001B00017EB00094E41201EA4F10104DFDC484684
:1001C00031462A464346BDE8F09F2DE9F041002420
:1001D000061B254671F1000605DA01240027D0EB45
:1001E000070067EB0101161E73F1000605DA002710
:1001F000D2EB0702012567EB0303FFF7B5FF864645
:100200000E4617469C46AC4204D00025D0EB050EA6
:1002100065EB010624B10020D2EB000760EB030C74
:10022000704631463A466346BDE8F08140EA010334
:100230009B0703D009E008C9121F08C0042AFAD29C
:1002400003E011F8013B00F8013B521EF9D2704760
:10025000D2B201E000F8012B491EFBD27047002208
:10026000F6E710B513460A4604461946FFF7F0FFB5
:10027000204610BD30B505460020034600E05B1C5B
:10028000934205D2EC5CC85C201A01D1002CF6D157
:1002900030BD2DE9FE4F804681EA0300C00F0C46B9
:1002A000009021F0004123F00045B8EB0200A94185
:1002B00005D24046214690461C460B46024623F096
:1002C0000040104347D0270DC7F30A00C3F30A517B
:1002D0000290401A019040286BDAC3F3130040F4F7
:1002E000801B0098924620B10023D2EB030A63EBF7
:1002F0000B0B01985946C0F14002504600F0A1F99D
:1003000006460D4650465946019A00F0B9F910EBE1
:1003100008006141002487EA115284EAE7731A4316
:1003200040D0009A62B3019A012A4FEA075215DCC5
:10033000001B61EB02014FF0004202EA0752CDE9D7
:100340000042001C41F5801132462B4600F0F0F9C6
:1003500003B0BDE8F08F40462146F9E7001B61EB92
:100360000201001C41F5801300185B412018A2F522
:10037000001747EB030140EAD570B6196D4111E053
:100380006D084FEA360645EAC0754FEA0752001B72
:1003900061EB0201001C41F5801149084FEA300071
:1003A0000019514132462B4603B0BDE8F04F00F032
:1003B000B0B90098012240000023D0EB020263EBA9
:1003C000E073009821464FEAE074B8EB000061EB5F
:1003D0000401E9E783F000435BE781F0004158E75F
:1003E0002DE9FE4F81EA030404F0004421F00041AE
:1003F00000944FF0000B23F0004350EA01045ED05C
:1004000052EA03045BD0C3F30A54C1F30A552C44E7
:10041000A4F2F3340194A0FB0254C1F3130141F49C
:100420008011C3F3130343F4801301FB024400FB68
:10043000034E840A970A44EA815447EA8357A4FB8F
:10044000076802958D0A05FB07854FEA932C04FB8C
:100450000C542705029D4FEA065847EA1637B5EBBC
:1004600008056EEB070C870E920E47EA811742EAE9
:100470008312A7FB0201B6EB0B0164EB00042B0D0A
:1004800043EA0C335E1844EB1C50DA465146E7FB56
:100490000201C5F313044FEA0B3343EA14534FEA46
:1004A0000432019C43EA0603A4F10C040294009C6C
:1004B000CDE900B400F03CF903B0BDE8F08F0020B6
:1004C0000146F9E72DE9F04D81EA030404F0004B01
:1004D00021F0004514464FF0000A23F0004150EA95
:1004E000050220D054EA01021DD0C5F30A57024686
:1004F000C5F31303C1F31300C1F30A5640F480158A
:1005000043F48013A7EB0608101BD64608F2FD380B
:1005100073EB050002D308F1010801E092185B417A
:10052000B8F1000F03DA00200146BDE8F08D00208D
:100530004FF48011064684460EE0171B73EB050747
:1005400005D3121B63EB050306434CEA010C490873
:100550004FEA300092185B4150EA0107EDD152EAB0
:10056000030012D082EA040083EA0501084305D0A3
:10057000101BAB4106D20122002306E000224FF0FF
:10058000004302E06FF0010253101AEB06004CEB3F
:10059000085110EB0A0041EB0B01BDE8F04D00F0F3
:1005A000B8B80EB5C10F80EAE0700844CA07002150
:1005B00040F233438DE80E000A460B4600F0B8F8CF
:1005C00003B000BD0EB540F2334102910021CDE9E8
:1005D00000110A460B4600F0ABF803B000BD01F075
:1005E000004330B421F0004150EA010206D00A0D68
:1005F000A2F56072C1F31301002A02DC30BC0020B6
:100600007047440F44EAC104C100E01830BC00EB5D
:10061000C25000F047B830B50B46014600202022FA
:10062000012409E021FA02F59D4205D303FA02F5FF
:10063000491B04FA02F52844151EA2F10102F1DC5F
:1006400030BD202A04DB203A00FA02F10020704776
:100650009140C2F1200320FA03F319439040704700
:10066000202A04DB203A21FA02F00021704721FA07
:1006700002F3D040C2F1200291400843194670476E
:10068000202A06DBCB17203A41FA02F043EAE07356
:1006900006E041FA02F3D040C2F120029140084343
:1006A000194670470029A8BF7047401C490008BF81
:1006B00020F00100704710B4B0FA80FC00FA0CF092
:1006C00050EA010404BF10BC704749B1CCF12004CA
:1006D00021FA04F411FA0CF118BF01212143084357
:1006E000A3EB0C01CB1D4FEA00614FEA102042BF83
:1006F000002010BC704700EBC35010440029A4BF79
:1007000010BC7047401C490008BF20F0010010BC1D
:10071000704710B5141E73F1000408DA401C41F153
:10072000000192185B411A4301D120F0010010BD75
:100730002DE9F04D92469B4611B1B1FA81F202E0EB
:10074000B0FA80F220329046FFF77BFF04460F4656
:1007500040EA0A0041EA0B0153465A46084313D0C7
:10076000114653EA010019D0C8F140025046FFF784
:1007700077FF05460E46504659464246FFF761FF51
:10078000084305D0012004E020463946BDE8F08D3D
:100790000020054346EAE0762C4337430A98630578
:1007A000E40AA0EB08000022FD0A44EA47540A309C
:1007B00002D500200146E9E7010510196941DDE98C
:1007C000084500196941BDE8F04DA2E72DE9F04D5B
:1007D00000231A461B1A8A4103DB00200146BDE8AC
:1007E000F08DC1F30A52C1F3130141F480154FF0AB
:1007F000000BD10702D100186D41521E002704469C
:1008000040F2FF11384601EB620A3E46804602463E
:1008100000204FF48011FFF723FFC2197141BB186C
:1008200046EB0100B4EB030C75EB000C04D3E41AA7
:1008300065EB000517460E46241908F101006D41CD
:1008400080463428E3DDF91946EB0600091BA84170
:1008500003D24FF0FF32134601E0002213461BEB98
:10086000070046EB0A51BDE8F04DFFF752BFC1F358
:100870000A52C1F3130140F2FF3341F480119A424E
:1008800002DA00200146704740F233439A42A2F256
:10089000334202DC5242FFF7E3BEFFF7D2BE000054
:1008A00030B5041E71F1000404DB4FF000444042F7
:1008B00064EB0101141E73F1000405DB1C464FF0CC
:1008C0000043524263EB0403994208BF904230BD9B
:1008D000064C074D06E0E06840F0010394E807008D
:1008E00098471034AC42F6D3FFF726FC685403084F
:1008F0008854030870B521F0004303430CD0C1F3C2
:100900000A550024D5EB040564EB0403D617AD1A91
:10091000B34102DB0020014670BD201841EB0251BB
:1009200070BD70B58C1810F8015B15F0070301D18C
:1009300010F8013B2A1106D110F8012B03E010F842
:10094000016B01F8016B5B1EF9D12B0705D4002365
:10095000521E0DD401F8013BFAE710F8013BCB1A07
:10096000921C03E013F8015B01F8015B521EF9D5FC
:10097000A142D8D3002070BD10B5012002F07EFC4A
:10098000002002F07BFC10BD08B50146002000905D
:10099000034800900098084400900098008808BD23
:1009A000006C004008B500220092044A0092009AB0
:1009B00002440092009A116008BD0000006C0040E3
:1009C00010B5044624B1012C07D0022C15D10AE041
:1009D0001021012005F0CAFB10E04FF480510220E5
:1009E00005F06CFB0AE01021012005F0BFFB4FF47D
:1009F0008051022005F062FB00E000BF00BF10BD87
:100A000000BFFEE70146CAB20B1243EA022070475C
:100A100010B5002405E0A8480068005DA749085506
:100A2000641CA74800888442F5D3A4484068A549BF
:100A30004860A24880688860A14800881F280FD0BD
:100A40000220FFF7BDFF00209C490860487B1A2266
:100A5000052105F07DFC0021012005F05BFC10BDA7
:100A60009648C07B282803D09448C07B2A2816D1FA
:100A70009248407C01069148807C41EA00418F48C1
:100A8000C07C41EA00208D49097D08438E490860F9
:100A90008A48C17D807D41EA00208C4908608748F2
:100AA00000688B4988426FD18448407B8949096836
:100AB000884207D88148807B012803DB7F48807B00
:100AC00010280DDD0220FFF77BFF7C49487B2422A4
:100AD000052105F03DFC0021012005F01BFCE8E0AC
:100AE0007648C07B25285FD01BDC15286FD00EDC34
:100AF00008286DD006DC00285BD0032830D00428FD
:100B000067D176E00A286ED01228F9D12DE01A3884
:100B10000A285ED2DFE800F0392EB17D33B1B1B1E1
:100B2000B1438A286FD00EDC552867D006DC282810
:100B300044D02A284ED02F28E2D155E05A2829D077
:100B40008828DDD176E0A8286DD004DC8F286FD00E
:100B50009E28D5D173E0AA287BD0AF28D0D182E0DF
:100B60005649487B03F0F0F995E05449487B03F07F
:100B7000C3F890E05149487B03F0FAF98BE04F4904
:100B8000487B03F0F5F986E086E04C49487B03F0AA
:100B900003F980E04949487B03F0F4F87BE04749DA
:100BA000487B03F08DF976E04449487B03F03AF93D
:100BB00071E04249487B03F0E3F96CE03F49487B30
:100BC00042490A684049096803F0F0F863E01BE015
:100BD00024E052E03949487B3C490A683A490968AF
:100BE00003F00AFA57E02FE03449487B03F0E4F9B8
:100BF00051E03249487B03F067F84CE02F49487BCD
:100C000003F09EF847E029E02C49487B03F098F870
:100C100041E02A49487B03F093F83CE02749487BB0
:100C200003F08EF837E02549487B03F089F832E07D
:100C30001EE00EE02149487B03F082F82BE01F49BB
:100C4000487B03F07DF826E01C49487B03F078F8E8
:100C500021E01A49487B03F073F81CE01749487BF0
:100C600003F06EF817E01549487B03F069F812E0CD
:100C70001249487B03F064F80DE00220FFF7A0FE64
:100C80000E49487B2022052105F062FB002101204E
:100C900005F040FB00BF0CE00220FFF791FE074982
:100CA000487B2022052105F053FB0021012005F09F
:100CB00031FB00BFD3E600008C01002000BA002009
:100CC0009001002020BA002094010020980100200B
:100CD00055534243F401002008B50020009022E162
:100CE0009748008800F00F00964908700846007881
:100CF00000287CD194480068944908800846008800
:100D000000F03000924908809048008800F440507C
:100D10008E4908808C4909684BF6BF7201EA0200CF
:100D200080F4005080F0200040F4004141F0800148
:100D3000854A11608248008800F0100090BB104680
:100D4000006848F60F7108401146086001F038FB52
:100D50007D4909684BF6BF7201EA02007B490988A8
:100D600001F4805109B180F480507849098801F478
:100D7000005109B180F400507549098801F0100153
:100D800009B180F010007249098801F0200109B111
:100D900080F0200081B241F4004141F080016A4AB4
:100DA000116008BDFFE76848006880B20090BDF898
:100DB000000000F40060B0B363480068C0F30E00A8
:100DC00048F68F7108406049086005F0D1FA5E4925
:100DD00009684BF6BF7201EA02005C49098801F418
:100DE000805109B180F480505849098800E056E0EC
:100DF00001F4005109B180F400505549098801F00F
:100E0000100109B180F010005149098801F020015A
:100E100009B180F0200081B241F4004141F080012D
:100E2000494A1160BDE7FFE7BDF8000000F400404B
:100E3000002878D044480068C0F30E0048F68F714F
:100E400008404149086002F0B1F83F4909684BF693
:100E5000BF7201EA02003D49098801F4805109B1DD
:100E600080F480503949098801F4005109B180F4B7
:100E700000503749098801F0100109B180F01000D5
:100E80003349098801F0200109B180F0200081B2C6
:100E900041F4004141F080012B4A116081E729486B
:100EA00000782C4901EB8000D0F8000C80B2009053
:100EB000BDF8000000F40040C0B12248007801EB0A
:100EC0008000D0F8000CC0F30E0048F68F71084087
:100ED0001C4909781F4A02EB8101C1F8000C19492D
:100EE0000978491E1C4A52F821008047BDF80000CD
:100EF00000F08000B8B113480078164901EB80007B
:100F0000D0F8000C48F60F7108400E490978114AD4
:100F100002EB8101C1F8000C0A490978491E0F4A09
:100F200052F82100804708484430006880B20449E4
:100F3000088000F4004000287FF4D2AE00BF30E704
:100F4000B801002094020020005C0040A8020020AC
:100F5000AA02002000500040D8010020BC0100205F
:100F60000B4A02EB8001D1F8001C01F4804171B101
:100F700002EB8001D1F8001C48F68F7211404CF250
:100F800080021143024B03EB8002C2F8001C704741
:100F9000005000400B4A02EB8001D1F8001C01F028
:100FA000400171B102EB8001D1F8001C48F68F724C
:100FB000114048F2C0021143024B03EB8002C2F819
:100FC000001C704700500040084A02EB8001D1F835
:100FD000001C48F68F62114048F280021143034B17
:100FE00003EB8002C2F8001C704700000050004074
:100FF00070B500254FF4803400E0641E24B18020D9
:1010000003F05AF90028F8D014B90325284670BD1A
:1010100040F2FF5003F0DAF82846F8E72DE9F041F6
:10102000064600274848456B01E04748456B05F0F8
:1010300045000028F9D005F0040030B10327042052
:1010400003F0C4F83846BDE8F08105F0010028B18E
:101050000127012003F0BAF83846F4E703F026F937
:10106000B04202D010273846EDE740F2FF5003F0BF
:10107000ADF8002003F034F904463448204008B9A4
:101080003846E0E704F0004008B11C20DBE704F03C
:10109000804008B10920D6E704F0005008B10A20CA
:1010A000D1E704F0805008B10B20CCE704F00060D9
:1010B00008B10C20C7E704F0806008B10D20C2E73A
:1010C00004F0807008B10E20BDE704F4000008B100
:1010D0000F20B8E704F4800008B11020B3E704F44F
:1010E000001008B11120AEE704F4801008B11220FE
:1010F000A9E704F4002008B11320A4E704F4802039
:1011000008B114209FE704F4003008B115209AE7D5
:1011100004F4803008B1162095E704F4004008B1CB
:10112000172090E704F4804008B118208BE704F4FE
:10113000005008B1192086E704F0080008B11A2011
:1011400081E738467FE700000080014008E0FFFDAE
:1011500070B500251048446B01E00F48446B04F063
:1011600045000028F9D004F0040028B1032504202C
:1011700003F02CF8284670BD04F0010028B10125C9
:10118000012003F023F82846F5E740F2FF5003F072
:101190001DF82846EFE700000080014070B50025EB
:1011A0000B48446B01E00A48446B04F045000028FA
:1011B000F9D004F0040028B10325042003F006F858
:1011C000284670BD40F2FF5003F000F82846F8E7CB
:1011D000008001402DE9F04106460F464FF000081F
:1011E0002248456B01E02148456B05F04500002889
:1011F000F9D005F0040038B14FF00308042002F0E4
:10120000E5FF4046BDE8F08105F0010030B14FF048
:101210000108012002F0DAFF4046F3E703F046F848
:10122000B04203D04FF010084046EBE740F2FF50C9
:1012300002F0CCFF002003F053F8044604F46040B1
:1012400018B9200C38804046DCE704F4005008B19F
:101250001320D7E704F4804008B11020D2E704F44B
:10126000004008B10F20CDE74046CBE700800140A9
:1012700070B500264FF480350F48446B02E06D1EB8
:101280000D48446B04F0450008B9002DF7D115B1A5
:1012900004F0040028B10326042002F097FF304632
:1012A00070BD04F0400028B10026402002F08EFFFF
:1012B0003046F5E73046F3E700800140F0B591B0E5
:1012C0001D4E0025002400271C480078002830D03F
:1012D000402101A8FEF7C3FF00BF0CE005F072FD3E
:1012E00005464FF6FF70854202D001A90D5500E07A
:1012F00003E0601CC4B2402CF0DB00BF01A910A0C9
:1013000006F018F905F04EFD07220EA101A8FEF720
:10131000B1FF10B900F0D6FD0BE006220BA101A829
:10132000FEF7A8FF10B902F055FA02E009A006F096
:1013300001F911B0F0BD0000B40200202700002028
:101340002573000041542B54494D450041542B4115
:1013500043430000636F6D6D616E64206572726F50
:10136000720D0A0000F0805111B10349086001E0DC
:101370000249486070470000040402400000024037
:1013800021B1026842F00102026004E002684FF6F7
:10139000FE731A400260704701684FF6FE721140FA
:1013A00001600021016041608160C1604B49884259
:1013B00008D14A490839496841F00F01474A083ABB
:1013C00051608AE045491431884208D143490839BF
:1013D000496841F0F001414A083A51607DE03F49D7
:1013E0002831884208D13D490839496841F4706183
:1013F0003A4A083A516070E038493C31884208D195
:1014000036490839496841F47041344A083A516014
:1014100063E032495031884208D13049083949687F
:1014200041F470212D4A083A516056E02B4964314D
:10143000884208D129490839496841F47001274A8E
:10144000083A516049E025497831884208D123495A
:101450000839496841F07061204A083A51603CE01F
:101460001F49884206D1011F096841F00F01021F80
:10147000116032E01A491431884208D11849091F15
:10148000096841F0F001164A121F116025E0144965
:101490002831884208D11249091F096841F4706156
:1014A0000F4A121F116018E00D493C31884208D1E3
:1014B0000B49091F096841F47041094A121F116064
:1014C0000BE007495031884207D10549091F0968D7
:1014D00041F47021024A121F116070470800024057
:1014E0000804024001460020002201F0805313B19D
:1014F000054B1A6801E0054B1A6802EA01030BB1BB
:10150000012000E00020704700040240000002407B
:1015100010B50022026847F6F0739A430C6A8B6894
:1015200023430C6923434C6923438C692343CC69CF
:1015300023434C6A23438C6A23431A430260CB68DB
:1015400043600B6883604B68C36010BD30B58BB0DF
:1015500005460C461348FFF705FF00211248FFF728
:101560000FFF12480090019500200290A008039000
:101570000020049080200590800006908000079055
:10158000002008904FF40050099000200A9069460E
:101590000548FFF7BDFF01210348FFF7F1FE0BB03F
:1015A00030BD000000F00010440402408080014083
:1015B00030B58BB005460C461348FFF7D3FE00212B
:1015C0001248FFF7DDFE12480090019510200290AE
:1015D000A0080390002004908020059080000690D1
:1015E00080000790002008904FF4005009900020E0
:1015F0000A9069460548FFF78BFF01210348FFF772
:10160000BFFE0BB030BD000000F0001044040240EB
:10161000808001402DE9F0472848006800F110055E
:101620002E8826480068077AD6B9042F18D1244896
:10163000007801280FD100212248006880B2801C68
:10164000214A42F8101030202049088000BF0020B5
:101650001B49087003E0072710201C49088027E079
:10166000AC88A64201D8042000E002200746B4421C
:1016700000D93446A0B2A96888478046002000F00F
:1016800003FC8146A2B24946404605F073FEA1B272
:10169000002004F05DFD2888001B28806888204415
:1016A000688030200949088000020949088000BF8D
:1016B000024909680F72BDE8F08700009802002017
:1016C00092020020505C004000600040AA0200200E
:1016D000A80200202DE9F0412848006800F110041C
:1016E0002688A068C0B1BEB1A588B54200D93546EC
:1016F000A8B2A168884707462088401B20806088E0
:1017000028446080002000F091FB8046AAB2414648
:10171000384601F073FC00BF208850B14FF44050B0
:10172000174908800021084604F012FD30201549B1
:1017300008802088A188884204DB03200F490968BB
:10174000087218E02088002804DD05200B4909688C
:10175000087210E0208870B90620084909680872EC
:1017600000210948006880B2801C084A42F8101025
:10177000302004490880BDE8F08100009802002074
:10178000A8020020AA020020505C00400060004037
:101790002DE9F84F9B48006845780027BA46062D8A
:1017A0001BD198480068007800F07F00002813D112
:1017B000944909688878012803D193490968CF6959
:1017C0000AE0022803D1904909680F6A04E003285F
:1017D00002D18D4909684F6A94E0002D64D189488F
:1017E0000068408800285FD186480068C0880228C9
:1017F0005AD1844800680079002855D18148006892
:10180000007800F07F0028B97E480068808808B919
:101810007E4F77E07B480068007800F07F00012869
:1018200010D1784909684879774909688A6900219F
:101830009047002866D173480068807A002861D0FC
:10184000724F5FE06F480068007800F07F00022868
:1018500058D16C480068407900F00F06694800686C
:10186000407900F0700967480068407900F0800016
:1018700038B1674901EB8600D0F8000C00F0300861
:1018800006E0634901EB8600D0F8000C00F44058F4
:1018900060480078B04235D9B9F1000F32D1B8F1C3
:1018A000000F2FD0594F2DE0082D07D15548006863
:1018B000007800F07F0028BB574F23E00A2D21D18C
:1018C00050480068007800F07F0001281AD14D4888
:1018D0000068807AB0B14B480068408890B94948A8
:1018E0000068007970B947480068C088012809D1AC
:1018F000444909684879444909688A690021904740
:1019000000B9464F57B13F480068A0F812A03D48C3
:10191000006887610020B84700240FE0394A126848
:101920005078394A1268116988470446032C05D15A
:101930000920344909680872BDE8F88F3148006809
:10194000008A4FF6FF71884204D109202D490968A9
:101950000872F1E7022C03D02A480068008A20B9F7
:101960000820284909680872E6E7264800680078D8
:1019700000F08000E0B323480068C0880090214850
:101980000068008A0099884204D91E4900980968B5
:10199000088223E01B480068008A1A490968C98840
:1019A00088421BDA17480068008A1749096891F8CD
:1019B0002C10884203DA0020194908700EE0114803
:1019C0000068008A1049096891F82C1090FBF1F228
:1019D00001FB120010B90120114908700A48006883
:1019E00090F82C10074800688182FFF713FE07E08B
:1019F000FFE70320034909680872000309490880CA
:101A000000BF99E7980200209C02002011660008A0
:101A100000500040F501002095650008E5650008CC
:101A200092020020A80200207047000001B504497E
:101A30000098086000BF024800680028FBD108BD7C
:101A40000400002010B501F0F3F810BD10B501F04E
:101A500043F910BD014908607047000014040140BB
:101A6000002123498279002A3AD00A461268036885
:101A70009A430B461A600A1D126803689A430B1DAD
:101A80001A60027911440A6803681A430A60184A06
:101A90000832126803689A43154B08331A601A1DFE
:101AA000126803689A43124B0C331A604279102A69
:101AB0000ED11A1F126803681A430D4B08331A60BF
:101AC0001A1D126803681A43094B0C331A600DE0A3
:101AD0000749427911440A6803681A430A6005E01D
:101AE000027911440A6803689A430A60704700004B
:101AF0000004014010B503A005F01CFD03200849B7
:101B0000086010BD75736220656E746572206C6F1D
:101B10007720706F776572206D6F64650D0A000025
:101B2000840200202DE9FC4107460D4600260024D2
:101B300000200090019008205A4908601020486059
:101B4000402088600020C8604FF48060086108462B
:101B500002F000FC1020FFF761FA044614B12046A1
:101B6000BDE8FC815048008800044E4908603720D9
:101B70004860402088600020C8604FF480600861A1
:101B8000084602F0E7FB3720FFF748FA04460CB19D
:101B90002046E5E74548464908600820486030206F
:101BA00088600220C8600020086101204861084662
:101BB00002F052FB00203B4908603320486040207F
:101BC00088600020C8604FF480600861084602F019
:101BD000C1FB3320FFF722FA04460CB12046BFE7D1
:101BE00009E04FF4001002F067FB20B102F0ACFBFB
:101BF0004DF82600761C2F48406B40F22A610840C1
:101C00000028EED0082002F057FB28B1082002F08F
:101C1000DDFA04242046A3E7022002F04DFB28B1A0
:101C2000022002F0D3FA0224204699E7202002F095
:101C300043FB28B1202002F0C9FA062420468FE792
:101C40004FF4007002F038FB30B14FF4007002F036
:101C5000BDFA0724204683E740F2FF5002F0B6FAAF
:101C600000980006009901F47F4140EA01200099A4
:101C700001F47F0140EA1120009940EA1160686098
:101C800001980006019901F47F4140EA0120019981
:101C900001F47F0140EA1120019940EA11602860B7
:101CA00020465DE7800D00204C000020FFFF0F0064
:101CB000940D00200080014008B501210C2001F0A6
:101CC000BDFA4FF40070ADF8000010208DF803004D
:101CD00003208DF8020069460B4800F019F84FF414
:101CE0008060ADF8000010208DF8030003208DF80F
:101CF00002006946054800F00BF84FF48061034884
:101D000000F091F808BD0000000C014000080140FF
:101D10002DE9F04102460025002600200023002482
:101D2000002791F803C00CF00F0591F803C00CF0E8
:101D3000100CBCF1000F03D091F802C04CEA05056D
:101D400091F800C0BCF1000F31D0146800202BE0E6
:101D50004FF0010C0CFA00F3B1F800C00CEA0306D6
:101D60009E4220D183004FF00F0C0CFA03F7BC43C6
:101D700005FA03FC4CEA040491F803C0BCF1280FF7
:101D800006D14FF0010C0CFA00FCC2F814C00AE0B6
:101D900091F803C0BCF1480F05D14FF0010C0CFACB
:101DA00000FCC2F810C0401C0828D1D31460B1F860
:101DB00000C0BCF1FF0F34DD546800202EE000F1BC
:101DC000080C4FF0010808FA0CF3B1F800C00CEA57
:101DD00003069E4221D183004FF00F0C0CFA03F74B
:101DE000BC4305FA03FC4CEA040491F803C0BCF1BF
:101DF000280F05D100F1080C08FA0CF8C2F814807D
:101E000091F803C0BCF1480F07D100F1080C4FF066
:101E1000010808FA0CF8C2F81080401C0828CED33C
:101E20005460BDE8F081016170470000014605483B
:101E3000006880B200EBC100001D034A32F81000B8
:101E400080B27047505C0040006000400146064888
:101E5000006880B200EBC100801D044A32F8100017
:101E6000C0F3090070470000505C00400060004073
:101E70000146044A02EB8100D0F8000C00F4405007
:101E8000704700000050004001460548006880B2DD
:101E900000EBC100034A32F8100080B27047000026
:101EA000505C004000600040014629B90120034A0F
:101EB00012681082002070470148FCE79802002059
:101EC000F40100200EB50848C07907498979064A0F
:101ED0005279CDE9002102900348C37882780188C5
:101EE00002A005F027FB0EBD3C0000202564C4EADB
:101EF0002564D4C22564C8D52C25643A25643A25C6
:101F0000640D0A0070B50A480468001D0568001DCC
:101F10000668344454B108220649204600F056FBB6
:101F2000042204491031284600F050FB70BD000027
:101F3000E8F7FF1F9E01002000BFFEE700B585B057
:101F40000121480501F05AF90121082001F076F934
:101F50000121480501F062F900214FF4001001F061
:101F60005DF9C020ADF8100003208DF812001C2090
:101F70008DF8130004A91548FFF7CAFE144800F0B5
:101F8000E9F80020ADF804004BF6FF70ADF806004C
:101F90003020ADF808004FF48060ADF80A00000171
:101FA000ADF80C000B4800900121094800F0A4F89E
:101FB0000121074800F0C1F86946054800F01CF906
:101FC0000121034800F098F805B000BD000C014065
:101FD00000540040801A06002DE9F04105460E46E7
:101FE0004FF6FF7400BF4FF40031404800F0E6F8B0
:101FF00018B1201EA4F10104F5D101213B4800F0E5
:102000007BF80121394800F0C1F84FF6FF7400BF9A
:102010003749364800F07CF818B9201EA4F10104B5
:10202000F6D100222946314800F060F94FF6FF74DE
:1020300000BF30492D4800F06BF818B9201EA4F1FC
:102040000104F6D13146294800F059F94FF6FF74E2
:1020500000BF2849891C254800F05AF818B9201EED
:10206000A4F10104F5D10121204800F08FF84FF6CA
:10207000FF7400BF1E491D4800F04AF818B9201E21
:10208000A4F10104F6D101222946184800F02EF9E6
:102090004FF6FF7400BF1649491C144800F038F889
:1020A00018B9201EA4F10104F5D100210F4800F059
:1020B00023F801210D4800F075F84FF6FF7400BFBA
:1020C0000B493F31094800F023F818B9201EA4F14C
:1020D0000104F5D1054800F005F907460121034840
:1020E00000F00AF83846BDE8F081000000540040D6
:1020F000010003008200070021B1028842F48062DF
:10210000028004E002884FF6FF331A4002807047D5
:1021100070B502460024002500230020958A138B09
:102120001B0445EA030626F07F4404EA01068E42BA
:1021300001D1012000E0002070BD21B1028842F0F1
:102140000102028004E002884FF6FE731A4002800A
:102150007047000010B504460B48844209D10121A4
:10216000480501F05BF800214FF4001001F056F82B
:1021700008E00121880501F051F800214FF48000AA
:1021800001F04CF810BD00000054004021B102885D
:1021900042F48072028004E002884FF6FF631A4026
:1021A0000280704721B1028842F40072028004E08C
:1021B00002884FF6FF531A40028070470CB5024662
:1021C000002000230193009300920B0F019321F054
:1021D0007F41019B1BB1009B1433009303E0090C6A
:1021E000009B18330093009B1B680B400BB1012030
:1021F00000E000200CBD00002DE9F04385B004464E
:102200000D460026B1460427DFF8CC80A6884FF69D
:10221000C0700640684601F037F8DDF808802F48A6
:10222000B8FBF0F01FFA80F946EA0906A68020887C
:102230004FF6FE7108402080002629492868884210
:102240000CD828684000B8FBF0F087B2042F00DA01
:1022500004273E4309F10100208427E0E8884BF67B
:10226000FF71884206D1286800EB4000B8FBF0F00F
:1022700087B209E0286800EBC00101EB0010B8FB51
:10228000F0F087B247F48047C7F30B0008B947F076
:10229000010747F4004006434FF4967009FB00F035
:1022A0004FF47A7190FBF1F0401C2084A6832088C3
:1022B00040F00100208026884FF6F5300640A888BF
:1022C0006989084306432680A88929890843208113
:1022D00005B0BDE8F083000000127A0040420F0014
:1022E000A08601000146088AC0B2704712B141F0D1
:1022F000010102E04FF6FE7319400182704701822E
:10230000704700002DE9F04105460F4616460121B1
:102310002348FFF73BFF4FF6FF7400BF21492048D9
:10232000FFF7F6FE18B9201EA4F10104F6D1002231
:1023300029461B48FFF7DAFF4FF6FF7400BF1A4922
:102340001748FFF7E5FE18B9201EA4F10104F6D1E5
:1023500039461348FFF7D3FF4FF6FF7400BF124909
:10236000891C0F48FFF7D4FE18B9201EA4F1010400
:10237000F5D131460A48FFF7C2FF4FF6FF7400BFA0
:102380000949891C0648FFF7C3FE18B9201EA4F1AD
:102390000104F5D101210248FFF704FFBDE8F081F7
:1023A000005400400100030082000700012080F378
:1023B000108800BF7047002080F3108800BF70476E
:1023C00010B518480068047A022C01D0042C05D1FD
:1023D000FFF720F913480068047A1CE0062C19D195
:1023E00010480068407805280ED10E480068007833
:1023F00000F07F0040B90B490968C87803F0FEFD82
:1024000009490968086A8047084909688868804757
:10241000082400E00824034909680C7200F09AFEC1
:1024200010BD000098020020A40200209C020020A1
:1024300010B54FF4E13004F065FC17A005F07AF810
:102440004FF4C06000F0F8FC00F09CF817A005F015
:1024500071F800F0DBF810B119A005F06BF8FFF788
:102460002BFC1BA005F066F8FFF768FD1FA005F028
:1024700061F800F06BF824A005F05CF800F0D2FDE4
:1024800028A005F057F802F085FA044621462BA053
:1024900005F050F810BD0000496E69745F55415257
:1024A0005432204F4B210D0A00000000496E697420
:1024B0005F5379735469636B204F4B210D0A000001
:1024C00052544320496E6974204F4B210D0A00007D
:1024D0004750494F5F436F6E6669677572617469F3
:1024E0006F6E204F4B210D0A00000000493243312E
:1024F0005F436F6E66696775726174696F6E204FB6
:102500004B210D0A00000000496E69745F4C534D69
:10251000333033444C485F414343204F4B210D0A35
:10252000000000004C45442050574D5F4F757470BB
:102530007574204F4B210D0A0000000053445F4981
:102540006E69743A25640D0A0000000010B5272258
:1025500020213220FFF7D6FE002221213220FFF772
:10256000D1FE002222213220FFF7CCFE00222321BF
:102570003220FFF7C7FE002224213220FFF7C2FEDF
:1025800010BD000010B5104800684FF47A71B0FB20
:10259000F1F4B4F1807F00D311E024F07F40401EBD
:1025A0004FF0E02148610F214FF0FF3000F04EFC6A
:1025B00000204FF0E02188610720086100BF002162
:1025C000481E00F043FC10BDA000002030B50B46B3
:1025D000002100BF16E00A24B4EB107F05D9302497
:1025E00004EB107403F8114005E0412404EB10746F
:1025F0000A3C03F81140000100254C00641C1D55E5
:102600004C1CE1B29142E6DB30BD00003EB5002437
:1026100000254FF4C06000F00FFC03208DF8080087
:1026200000208DF8090001208DF80A008DF80B00BC
:1026300002A800F0C9FB0420FEF7A6F945F25001FC
:1026400088425DD001214FF0C05000F0D7FD01203D
:1026500000F078FDFEF790F9012000F09DFE08E003
:102660000A20FFF7E3F9601CC4B2FA2C01DB00205A
:102670003EBD412000F072FE0028F1D04FF4807082
:1026800000F0AAFE012000F0A1FE01F087F801F0A1
:102690008FF80121032000F0DFFF01F07FF800F048
:1026A000B1FE47F6FF7001F069F801F077F80020FD
:1026B00000900C2311220721019040F2E17000F0FC
:1026C000DBFF00F0A9FE00F037FF054601F066F8D9
:1026D0000F48007820B905F10A0001F033F807E04F
:1026E0000B490978C1EB011105EB810001F02AF8D3
:1026F00001F054F845F250010420FEF753F903E0CD
:102700000348007803F0D8FD00F090FE0120AFE709
:102710003A0000207CB5044600250020019000907E
:102720005F48008800045F4908600D204860402031
:1027300088600020C8604FF480600861084601F09E
:1027400009FE5948406B009002E05748406B0090EA
:10275000009800F045000028F7D0009800F0040031
:1027600028B10325042001F031FD28467CBD0098E6
:1027700000F0010028B10125012001F027FD2846C5
:10278000F4E701F093FD009000980D2802D0102589
:102790002846EBE740F2FF5001F018FD002001F061
:1027A0009FFD01900198C0F3432020703F4901989C
:1027B000084008B92846D9E7019800F0004008B160
:1027C0001C20D3E7019800F0804008B10920CDE734
:1027D000019800F0005008B10A20C7E7019800F006
:1027E000805008B10B20C1E7019800F0006008B1EB
:1027F0000C20BBE7019800F0806008B10D20B5E720
:10280000019800F0807008B10E20AFE7019800F445
:10281000000008B10F20A9E7019800F4800008B17A
:102820001020A3E7019800F4001008B111209DE7E3
:10283000019800F4801008B1122097E7019800F485
:10284000002008B1132091E7019800F4802008B11E
:1028500014208BE7019800F4003008B1152085E7BB
:10286000019800F4803008B116207FE7019800F449
:10287000004008B1172079E7019800F4804008B1C2
:10288000182073E7019800F4005008B119206DE793
:10289000019800F0080008B11A2067E7284665E7AC
:1028A0004C000020800D00200080014008E0FFFD6A
:1028B0000146CA1701EB92729210A1EB82022AB96B
:1028C000642291FBF2F302FB131232B94FF4C87287
:1028D00091FBF2F302FB13120AB9012070470020AA
:1028E000FCE7000010B5074C07A004F023FEA07A17
:1028F00018B105200B49086002E001200949086071
:1029000010BD000050BA0020757362206C656176BE
:1029100065206C6F7720706F776572206D6F6465CE
:102920000D0A00008402002070477047014611B173
:10293000012904D101E0002070470020FCE70120BC
:10294000FAE72DE9F047064614461D46DDE908780A
:102950004FF0000916B1012E0BD109E04FEA6822B1
:10296000600A40EAC551384602F0E8FC814603E0BF
:1029700002E00120BDE8F08700BFB9F1000F01D0EF
:102980000120F7E70020F5E72DE9F0470646144659
:102990001D46DDE908784FF0000916B1012E0DD172
:1029A00009E04FEA6822600A40EAC551384603F060
:1029B000C9F8814605E04FF0000902E00120BDE8BA
:1029C000F08700BFB9F1000F01D00120F7E7002028
:1029D000F5E7000070B5054600241448006800784B
:1029E00000F07F00212810D1FE2D0ED10F48006885
:1029F000408850B90D480068808830B90B4800689D
:102A0000C088012801D10A4C01E0022070BD0CB938
:102A10000220FBE705480068846100210348006844
:102A200041820020A0470020F0E70000980200202B
:102A3000A91E000810B504460249204603F0C0FD57
:102A400010BD00005402002010B504460249204683
:102A500003F0B6FD10BD00004C02002070B5054625
:102A600006480068C478052C01DD002070BD0448CC
:102A700000EBC401284603F0A3FDF7E7980200200D
:102A80005C0200200246002901DD02207047002A76
:102A900001DD0220FAE70020F8E7000010B5044647
:102AA00011480068007800F07F0021281AD1FF2C1F
:102AB00018D10D4800684088A0B90B48006880888C
:102AC00080B909480068C08860B90120FEF762FA41
:102AD0000220FEF745FA054805490860002005492F
:102AE000087010BD0220FCE79802002055534243B5
:102AF00000BA00208801002010B5002032498872F9
:102B00003248C079324909684872002003F06EFAF1
:102B10004FF40071002003F049FB2021002003F056
:102B200025FB1821002003F091FA2A4890F82C1078
:102B3000002003F09DFA5821002003F0F9FA00204C
:102B4000FEF742FA002003F0D9FA0021012003F039
:102B50002DFB9821012003F0EBFA2021012003F046
:102B600005FB0021012003F0A9FA0021022003F057
:102B70001DFBD821022003F069FA164890F82C10AA
:102B8000022003F075FA4FF44051022003F096FA48
:102B90000021022003F0EAFA0E4890F82C100020E1
:102BA00003F066FA002003F0A9FA002003F026FAE9
:102BB00001200949086009480949086000200949BD
:102BC000087004F059FB10BD50BA002048530308A8
:102BD00098020020F801002084020020555342434F
:102BE00000BA0020880100207047704710B5FFF739
:102BF00089F9002005490968887200F0CFFA04F0CD
:102C000077FB00200249086010BD000098020020F8
:102C10008402002010B5044800680449884202D0AC
:102C20000220FDF7CDFE10BD00BA002055534243EF
:102C300010B52448007840F010002249087022485E
:102C4000007802281BD003282ED0042802D00528A3
:102C500034D100E000BF00201B4908704FF4405100
:102C6000022003F02BFA0220FFF702F9B0F5805F93
:102C700004D14FF44051022003F020FA1FE0134822
:102C8000C07B28280ED10F48007840F002000D4983
:102C900008700E49487B0E490A680E49096801F020
:102CA00085F800BF00BF0AE00121002003F032FBDD
:102CB0004FF44051022003F001FA00E000BF00BFD2
:102CC00010BD0000E50000208801002000BA0020AF
:102CD000980100209401002010B52348007840F0AE
:102CE0001000214908702148C47B21480168022056
:102CF00004F010FB1F4908801F48007810B101281C
:102D000022D102E0FDF784FE2CE02A2C0ED11648D9
:102D1000007840F00100144908701449487B1749B5
:102D20000A681749096801F067F91BE00120FDF7FF
:102D300047FE0E49487B2422052103F009FB0021B0
:102D4000022003F0E7FA0DE00220FDF739FE074903
:102D5000487B2422052103F0FBFA0021022003F026
:102D6000D9FA00BF00BF10BDE500002000BA002066
:102D70008C01002090010020880100209801002093
:102D80009401002010B508480068807A58B10520E9
:102D9000064908600120FEF7FDF80220FEF7E0F882
:102DA00000200349087010BD980200208402002012
:102DB0008801002004200149086070478402002037
:102DC00000BFFEE77047704770B5002100230F2257
:102DD000C47804B3154C246804F4E064C4F5E064DA
:102DE000210AC1F10403CA40447804FA03F184784B
:102DF0001440214309010E4C0678A155047804F0D3
:102E00001F050124AC4005786D11AD0005F1E025EA
:102E1000C5F8004109E0047804F01F050124AC4026
:102E2000044D0678761145F8264070BD0CED00E0A3
:102E300000E400E080E100E002490143024A116041
:102E4000704700000000FA050CED00E010B5002806
:102E500007DA0A07140E054A00F00F031B1FD454AB
:102E600003E00A07130E024A135410BD18ED00E0E8
:102E700000E400E070B50226474800684478464800
:102E80000068007800F07F00002844D1092C03D1AD
:102E900003F03EFC06465FE0052C14D13E48006876
:102EA000C0787F280BDC3C480068807838B93A4805
:102EB0000068808818B938480068807A08B1082509
:102EC00065E0002648E0032C0ED133480068C07846
:102ED000012807D130480068808818B903F03CFC0D
:102EE000064639E0022637E0012C35D12A48006831
:102EF000C07801280DD128480068808848B9264844
:102F00000068407A00F0200018B103F08DFA064600
:102F100022E0022620E020480068007800F07F00D0
:102F2000012805D10B2C17D103F092FC064613E0C3
:102F300019480068007800F07F0002280BD1012CAE
:102F400003D103F071FA064606E0032C04D103F026
:102F500017FC064600E002264EB1E0B20F4A1268A6
:102F6000516988470646032E01D109250FE00EB1AD
:102F700008250CE0062500210948006880B2801C65
:102F8000084A42F8101030200749088000BF024963
:102F900009680D7270BD0000980200209C0200209C
:102FA000505C004000600040AA02002010B51148AB
:102FB0000068047A022C01D0042C01D1082412E00C
:102FC000032C01D0052C05D1FEF784FB09480068CD
:102FD000047A08E0072C05D107490968C8688047CA
:102FE000082400E00824034909680C7200F0B2F8D4
:102FF00010BD0000980200209C020020F0B5561C75
:103000007510074E06EB41042B4605E034F8047BAF
:1030100020F8017B401C5B1E002BF7D1F0BD0000A7
:10302000006000401CB50121092000F007F90121D2
:10303000042000F0E3F84FF40070ADF8040018200D
:103040008DF8070003208DF8060001A93448FEF72B
:103050005FFE4FF4C060FFF7EFFE1E208DF800000A
:1030600000208DF801008DF8020001208DF803008A
:103070006846FFF7A9FE2B48406820F48050294994
:103080004860294803F01CFD284800882849B1FB06
:10309000F0F0401E27490880274800682449B0FB0B
:1030A000F1F0401E25490880012025490880234869
:1030B00000881D49283108801B480C30008840F0EA
:1030C000010019490C31088017481C30008840F471
:1030D000C04015491C3108800846008840F4006053
:1030E00008801448008810492C3108800E48203090
:1030F000008840F480500C49203108801048008836
:103100000949403108808020074908800846008826
:1031100040F0010008800121034803F0C4FC1CBDFD
:10312000000C014000000140000800402C0000207D
:1031300000127A002A000020A00000202E000020AB
:1031400034000020014908627047000000000E4270
:103150007047000010B50D4890F82C10002002F0C8
:1031600087FF0B480068007A082805D1400209490A
:10317000088010200849088005480068007A09285E
:1031800001D1012010BD0020FCE70000F801002063
:1031900098020020A8020020AA02002010B50120F9
:1031A00003F07EFF01240B48046000200A490880D8
:1031B00008460088074908600020091D08604FF490
:1031C000E050054908800846008802490860002050
:1031D00010BD0000405C0040A202002029B1064A58
:1031E00052690243044B5A6104E0034A5269824324
:1031F000014B5A61704700000010024029B1064A95
:10320000D2690243044BDA6104E0034AD269824383
:10321000014BDA61704700000010024029B1064AF4
:1032200012690243044B1A6104E0034A12698243A3
:10323000014B1A61704700000010024029B1064A94
:1032400092690243044B9A6104E0034A9269824303
:10325000014B9A61704700000010024029B1064AF4
:10326000D2680243044BDA6004E0034AD268824326
:10327000014BDA607047000000100240014908600D
:10328000704700004004424230B500210022002473
:1032900000232D4D6D6805F00C0121B1042905D0E6
:1032A000082923D105E0294D056022E0274D05605E
:1032B0001FE0254D6D6805F47012234D6D6805F40F
:1032C0008034022505EB92421CB9214D554305601F
:1032D0000BE01D4D6D6805F400351DB11C4D5543C7
:1032E000056002E0194D5543056002E0174D056089
:1032F00000BF00BF144D6D6805F0F0010909154DC0
:103300006B5C0568DD4045600F4D6D6805F4E0615C
:10331000090A104D6B5C4568DD4085600A4D6D689B
:1033200005F46051C90A0B4D6B5C4568DD40C56012
:10333000054D6D6805F44041890B074D6B5CC56810
:10334000B5FBF3F5056130BD0010024000127A00B4
:1033500000093D008C0000209C00002010B50146B3
:103360000022002300204A11012A02D1094C2368BF
:1033700006E0022A02D1074C236A01E0054C636A89
:1033800001F01F02012494401C400CB1012000E018
:10339000002010BD0010024000210B4A11700A4AA3
:1033A000203A82F82010012802D0042808D103E036
:1033B0000121054A117004E00521034A117000E063
:1033C00000BF00BF704700002010024001490860A4
:1033D000704700003C0442420249096A0143014A25
:1033E00011627047001002400149086070470000F8
:1033F000D8004242024909888143014A118070473E
:10340000042800400348008840F01000014908806B
:103410007047000004280040034800884FF6EF7111
:1034200008400149088070470428004070B5002614
:10343000002400253B4806883604001D0088064409
:103440003948B6FBF0F439480088A0423CD03749EF
:103450000C8040F2B27510E02846FFF729FA40B11F
:10346000B4F5B67F02D9A4F5B77404E0681C85B240
:1034700006E0A4F26D14681C85B2B4F5B77FEBD2F8
:1034800000BF2B480580002516E029490888FFF772
:103490000FFA30B1012D04D11D2C01D31D3C09E0E0
:1034A0000CE02448405DA04203D82248405D241A25
:1034B00000E003E0681C85B21C2CE6D200BF681C4B
:1034C0001B498870601CC8701748B6FBF0F100FB00
:1034D00011644FF46160B4FBF0F0154948714FF48A
:1034E0006160B4FBF0F100FB11403C21B0FBF1F056
:1034F0000F4988714FF46160B4FBF0F100FB11409B
:103500003C21B0FBF1F201FB12000949C8710B46E6
:10351000DA789978188800F02BF8054908710120AD
:1035200070BD0000182800408051010044000020B8
:103530003C0000200EA60008002103480188001F5F
:10354000008841EA004070471C28004001460020E6
:10355000064A12880A40D0B2044A121F12880A4052
:1035600012B108B1012000E000207047042800409B
:103570002DE9F04305460B46164600BF00BF00BFCD
:10358000012B01D0022B04D1681E85B203F10C007F
:10359000C3B2642095FBF0F101EBC10000EB011018
:1035A000A5EB800203F1010C0CEB8C0808EBCC0CB2
:1035B0004FF005089CFBF8FC4FEAE17801EB9878A6
:1035C0004FEAA8084FF0020909FB11884FEAE27997
:1035D00002EB997902EBA909C844C444B444ACF1A4
:1035E000010400E0E41D002CFCDB072094FBF0F755
:1035F00000FB1744E0B2BDE8F083000010B50024E2
:103600000120FFF7A3FF10B101201049087002202C
:10361000FFF79CFFA0B10220FFF7ECFE01200C4950
:103620000870FFF789FF044600F0B8F809490978E7
:10363000C1EB011104EB810000F084F800F0AEF85A
:103640000520FFF7D7FE00F0A9F810BD38000020D4
:10365000390000203A00002029B1064A12880243AE
:10366000044B1A8004E0034A12888243014B1A80FB
:1036700070470000002800402DE9F05F06460F4625
:1036800090469946DDE90AAB0025002440F2B2706D
:10369000864203DB40F63300864202DD0020BDE8AF
:1036A000F09F40F2B2750AE02846FFF701F910B129
:1036B0002048044401E020480444681C85B2B54217
:1036C000F2DB781EC7B2002510E01C48405D40F2D6
:1036D000A321484304EBC0143046FFF7E9F818B1C2
:1036E000012D01D116480444681C85B2BD42ECDBB3
:1036F000A8F1010040F2A321484304EBC014C9EB38
:103700004910C0EB092004EB0014CAEB0A1004EBCB
:1037100080045C4401214FF0C050FFF76FFD012091
:10372000FFF710FD204600F01BF800F037F80120ED
:10373000B5E700000085E2018033E1010EA6000834
:103740008051010000B50246FFF75CFE100C0349F2
:103750000880091D0A80FFF75FFE00BD2028004099
:1037600000B50246FFF74EFE100C03490880091D04
:103770000A80FFF751FE00BD1828004000B5024640
:10378000FFF740FEC2F3034003490880091D0A8089
:10379000FFF742FE00BD00000828004000BF0348BC
:1037A000008800F020000028F9D07047042800406D
:1037B000074800884FF6F77108400549088000BFA8
:1037C0000348008800F008000028F9D07047000086
:1037D000042800402DE9F04F95B028213220FEF753
:1037E000FBFB149029213220FEF7F6FB13902A21CF
:1037F0003220FEF7F1FB12902B213220FEF7ECFB7A
:1038000011902C213220FEF7E7FB10902D21322061
:10381000FEF7E2FB0F90DDE9131040EA012000B251
:103820000E90DDE9111040EA012000B20D90DDE9B3
:103830000F1040EA012000B20C900E98FCF7B1FE88
:10384000634A644BCDE90A01FCF73CFE8246002244
:103850004FF08043FCF7C4FD04460D460D98FCF77D
:10386000A0FE82465A4A5B4BFCF72CFE00224FF02A
:103870008043CDE90A01FCF7B3FD06460F460C98DC
:10388000FCF78FFE524A534BCDE90A01FCF71AFEB2
:10389000824600224FF08043FCF7A2FD8046894615
:1038A00042464B4640464946FCF79AFD32463B4667
:1038B000CDE9000130463946FCF792FD8246DDE94C
:1038C0000023FCF7E6FCCDE9020106F0B4FD024658
:1038D0000B46CDE904012046294604F031FC0022C4
:1038E0003D4BCDE90601FCF77BFD3C4A3C4BCDE965
:1038F0000801FCF7E7FDCDE90A01FCF770FE394944
:10390000086042464B4640464946FCF769FD224660
:103910002B46CDE9000120462946FCF761FD824691
:10392000DDE90023FCF7B5FCCDE9020106F083FDDB
:1039300002460B46CDE904013046394604F000FC4E
:103940000022254BCDE90601FCF74AFD234A244B12
:10395000CDE90801FCF7B6FDCDE90A01FCF73FFE11
:103960002149086032463B4630463946FCF738FD6F
:1039700082468B4622462B4620462946FCF730FDE0
:1039800052465B46CDE90001FCF783FCCDE902011C
:1039900006F051FD02460B46CDE90401404649467A
:1039A00004F0CEFB00220C4BCDE90601FCF718FD1C
:1039B0000A4A0B4BCDE90801FCF784FDCDE90A0169
:1039C000FCF70DFE0949086015B0BDE8F08F000056
:1039D000FCA9F1D24D624040008066404AD8124DA9
:1039E000FB2109400C0000201000002014000020E2
:1039F0002DE9FC4104460D4616464948007890B929
:103A0000484850F82400A5FB0010474AC2E90010BE
:103A1000444850F82400A6FB0010444AC2E90010B4
:103A200001203F4908703E48007801285CD1404899
:103A3000006820BB3B4830F8240080B23D4909684B
:103A4000CDE9001038480CC82046FEF77AFFC7B20F
:103A50002FB13948007840F00800374908704022FB
:103A600034480168812003F06CFC2E4850F8240093
:103A700040382F49086040203049086012E02D4846
:103A800000682E4A126881184022812003F059FCF8
:103A900027480068403826490860284800684030B8
:103AA000264908604021012002F052FB302101200C
:103AB00002F05CFB1C48D0E9003040229A1840F12B
:103AC00000001949C1E900201848D0E90010403928
:103AD00060F10000154AC2E90010194880684038BA
:103AE00017498860FEF721FF1048D0E90010002335
:103AF00059405840014310D100200D4908600F493A
:103B000008600021084A1160516003200D490870C7
:103B1000002003490870FEF707FFBDE8FC810000A4
:103B2000E4000020C8000020E8000020F000002091
:103B3000D0000020E0000020E5000020D40000209C
:103B400020BA00208801002070B50546072D01D05D
:103B50002E4805702D48007808284ED2DFE800F086
:103B600004111A202B384E4F2948006828B900F05C
:103B700053F806202549087002E005202349087003
:103B800041E000F049F80420204908700120204954
:103B9000086038E002201D4948700320087032E0B8
:103BA0001A484078401E194948700846407808B9BC
:103BB0000420087027E01748006884B244F010041D
:103BC000144804600520114908700A2048701AE062
:103BD0000E484078401E0D4948700846407858B954
:103BE0000C48006884B224F010040A4804600620DF
:103BF000087000200649086005E000BF00BF0620ED
:103C00000249087000BF00BF70BD0000890200209B
:103C10008C020020405C004010B50748006884B268
:103C200024F0040404480460FEF75CFE4FF43F40B7
:103C30000149086010BD0000405C00402DE9F041E2
:103C400004460D4617461E46B8191C4951F8241063
:103C5000884213D92A2D02D10220FCF7B1FE0020A0
:103C6000FCF7AEFE21220521204602F071FB002167
:103C7000012002F04FFB0020BDE8F0811048816870
:103C8000104850F824007043814214D02A2D03D1EB
:103C90000220FCF795FE02E00020FCF791FE0849A7
:103CA000487B2422052102F053FB0021012002F071
:103CB00031FB0020E0E70120DEE70000CC0000201F
:103CC00000BA0020C800002010B504462046FEF7C8
:103CD0002DFE68B10749487B3A22022102F038FBE9
:103CE0000121084602F016FB0020FCF769FE10BD1A
:103CF00000BFFCE700BA002070B506460C48007C07
:103D000000F0010010B10B4C05250BE00EB90A4C78
:103D100000E00A4C0648C07C242802DC0448C57C2C
:103D200000E024252946204602F0D0FF70BD0000A7
:103D300000BA0020080100200D0100203101002000
:103D400010B504460E48806818B90020FCF738FE0C
:103D50000BE00B48007B00F0800018B10020FCF75E
:103D60002FFE02E00220FCF72BFE0549487B2022B3
:103D7000052102F0EDFA0021012002F0CBFA10BD7E
:103D800000BA002010B504460821024802F09EFF48
:103D900010BD00005901002010B50446042102485E
:103DA00002F094FF10BD00005501002070B50646DA
:103DB0000C4615461948007820BB1949487B2B460C
:103DC00022462821FFF73AFF00B970BD1448007B56
:103DD00000F0800040B10220104908702A462146B8
:103DE0003046FFF705FE0CE00220FCF7E9FD0C4928
:103DF000487B2422052102F0ABFA0121084602F09B
:103E000089FAE2E705480078022804D12A462146CB
:103E10003046FFF7EDFD00BFD7E700008801002026
:103E200000BA002010B504462046FEF77FFD68B1B9
:103E30001F49487B3A22022102F08AFA01210846F2
:103E400002F068FA0020FCF7BBFD10BD194850F8DD
:103E50002400401E000E18490870164850F824002F
:103E6000401E000C4870134830F82400401E000A21
:103E70008870104810F82400401EC8700F4850F891
:103E80002400000E08710D4850F82400000C487101
:103E90000A4830F82400000A8871084810F8240005
:103EA000C8710821044802F011FF00BFCDE70000EF
:103EB00000BA0020CC00002073010020C8000020C0
:103EC00010B504462046FEF731FD68B11A49487B1B
:103ED0003A22022102F03CFA0121084602F01AFAC5
:103EE0000020FCF76DFD10BD144850F82400000EB2
:103EF00013490871114850F82400000C48710F480C
:103F000030F82400000A88710C4810F82400C871A9
:103F10000C4850F82400000C48720A4830F824007D
:103F2000000A8872074810F82400C8720C2104485F
:103F300002F0CCFE00BFD6E700BA0020CC00002083
:103F40007B010020C800002070B505460648C07CF3
:103F5000122802DC0448C47C00E0122421460348F5
:103F600002F0B4FE70BD000000BA00206101002024
:103F700010B504460121002002F0CCF910BD00006C
:103F800010B504462046FEF7D1FC68B10949487BCC
:103F90003A22022102F0DCF90121084602F0BAF9C6
:103FA0000020FCF70DFD10BD0121002002F0B2F948
:103FB00000BFF8E700BA002010B504460D4880683D
:103FC00048B90C48007C00F0040020B90121002011
:103FD00002F0A0F90CE00220FCF7F2FC0549487B56
:103FE0002422052102F0B4F90021012002F092F907
:103FF00010BD000000BA002070B506460C461546FC
:104000001948007820BB1949487B2B4622462A21B3
:10401000FFF714FE00B970BD1448007B00F080006B
:1040200040B90120104908704FF44051022002F0BD
:1040300045F80CE00020FCF7C3FC0C49487B242227
:10404000052102F085F90021012002F063F9E2E781
:1040500005480078012804D12A462146304603F05D
:10406000A5F900BFD7E700008801002000BA0020B2
:1040700008B501213020FFF7E1F84FF4F850ADF812
:10408000000003208DF8020018208DF80300694617
:104090000548FDF73DFE0420ADF8000069460348E1
:1040A000FDF736FE08BD000000100140001401407D
:1040B0007CB50546002400200090019000F010F926
:1040C00000F0007010B10E2420467CBD3D490988E7
:1040D00088B26946FDF726FD04460CB12046F4E798
:1040E000012D36D1019800F4802000282ED03548CB
:1040F0000088000434490860372048604020886008
:104100000020C860A8020861084600F023F93720A3
:10411000FCF784FF04460CB12046D6E702202A496A
:10412000086006204860402088600020C8604FF486
:1041300080600861084600F00DF90620FCF76EFF6C
:1041400004460CB12046C0E72046BEE725242046A1
:10415000BBE7019800F4803078B31A480088000467
:104160001949086037204860402088600020C860F6
:104170004FF480600861084600F0ECF83720FCF747
:104180004DFF04460CB120469FE700200E49086011
:1041900006204860402088600020C8604FF480609E
:1041A0000861084600F0D6F80620FCF737FF044601
:1041B0000CB1204689E7204687E7FFE72524204603
:1041C00083E700004C000020800D00200149886337
:1041D00070470000008001400149086070470000FE
:1041E000A000304201490860704700008C05304251
:1041F00070B58CB006460C46154601210220FEF72C
:10420000EDFF1348FDF7C8F800211148FDF7B8F895
:104210001048019002960395A00804900020059094
:104220008020069080000790800008900020099070
:104230004FF400500A9000200B9001A90448FDF7AC
:1042400067F900210248FDF79BF80CB070BD000033
:10425000440402408080014000210A4B02685A62F7
:1042600042689A621A46D16A21F0F701D0E9022326
:104270001A4303691A4343691A431143014AD1623D
:104280007047000000800140002006490860486037
:104290008860C86048628862C862034888630020FA
:1042A000C863704700800140FF07C00001480069F3
:1042B000C0B270470080014001460020034A526BA3
:1042C0000A400AB1012000E0002070470080014050
:1042D0000248006800F003007047000000800140C1
:1042E00008B501460020009002480844009000985C
:1042F000006808BD1480014029B1064AD26B024310
:10430000044BDA6304E0034AD26B8243014BDA6365
:10431000704700000080014000210A4A516847F6BA
:10432000FF629143027D83681A4343681A43C3685E
:104330001A4303681A4303691A431143014A51603F
:10434000704700000080014001480068704700008D
:10435000808001400021094B02689A601A46D168AA
:104360006FF30A01D0E901231A43C3681A430369B2
:104370001A431143014AD160704700000080014098
:104380000549096821F00301034A116011460968D3
:10439000014311607047000000800140014908603E
:1043A000704700008080014070B504460025214818
:1043B0000068032802D12725284670BD1D480068E3
:1043C00038B11C480068012803D01A480068022848
:1043D0002ED1B4F5805F02D127252846EDE7B4F54C
:1043E000006F14D10120FFF763FE054605BB0420D2
:1043F0001149087500200860486088604FF400602B
:10440000C860002008610846FFF786FF10E0002022
:10441000FFF74EFE05465DB90420074908750020E8
:10442000086048608860C86008610846FFF774FF4C
:104430002846C2E748000020680D002010B500247F
:10444000002255A1554804F0E5FD5549087008467D
:10445000007828B10846017852A003F06BF802E01A
:1044600056A003F067F80A2259A15D4804F000FE47
:104470004B4908700846007828B10846017859A0D1
:1044800003F058F802E05CA003F054F85E4B2622DB
:104490005EA1534804F0DCFF4149087008460078EB
:1044A00028B10846017863A003F044F802E066A052
:1044B00003F040F84A4804F01EFC022244A1484898
:1044C00004F0D6FD364908700846007828B1084641
:1044D000017844A003F02EF802E047A003F02AF888
:1044E0003F48C068411E3E4804F03EFC464B332224
:1044F00059A13B4804F0ACFF2949087008460078F0
:1045000028B1084601784BA003F014F802E04EA051
:1045100003F010F83248C068411E314804F024FC12
:10452000394B272259A12E4804F092FF1C490870EC
:104530000846007828B1084601783EA002F0FAFF4C
:1045400002E041A002F0F6FF254804F0D4FB01226E
:104550001FA1234804F08CFD11490870084600781B
:1045600028B1084601781FA002F0E4FF02E022A073
:1045700002F0E0FF032409E0641E194AFF214D48C0
:1045800004F0C9FB4B494CA002F0D4FF002CF3D13E
:10459000134804F0B0FB10BD303A0000B404002012
:1045A0001C000020B9D2D4D8CEC4BCFECFB5CDB348
:1045B000CAA7B0DC20282564290D0A00B9D2D4D8B6
:1045C000CEC4BCFECFB5CDB3B3C9B9A60D0A0000A9
:1045D000303A2F6D6573736167652E7478740000CF
:1045E000E4060020B4F2BFAACEC4BCFECAA7B0DC69
:1045F00020282564290D0A00B4F2BFAACEC4BCFE4F
:10460000B3C9B9A60D0A00002000002074686973C0
:104610002069732061205344436172642026204640
:1046200041544653207465737420636F6465210D93
:104630000A000000CEC4BCFED0B4C8EBCAA7B0DCF0
:1046400020282564290D0A00CEC4BCFED0B4C8EBD6
:10465000B3C9B9A60D0A0000446F206F6E652074BF
:1046600068696E6720617420612074696D652C2013
:10467000616E6420646F2077656C6C2E3230313847
:10468000C4EA33D4C232C8D50D0A0000446F206F8B
:104690006E65207468696E6720617420612074699A
:1046A0006D652C20616E6420646F2077656C6C2EC4
:1046B0000D0A00003009002025730D0A00000000DB
:1046C00030B5014600200022AE4B1B7881F84E30F9
:1046D000AD4B1B88A1F84C30AC4B1B681A0E9309EC
:1046E0000B70C2F383034B7002F003038B70A74B74
:1046F0001B68C3F30742CA70A44B1B88C3F307228D
:104700000A71A24B1A784A715B681A0E1301CB80AA
:104710009E4B5B68C3F30742CB8843EA1213CB80FE
:1047200002F00F030B72994B9B88C3F30722D30946
:104730004B72C2F380138B72C2F34013CB72C2F37D
:1047400000130B7300234B738E4B1B681BB18D4BF7
:104750001B68012B3CD193071B0D0B618B4B1A7906
:104760000B6943EA82030B61884B9B681A0E0B6945
:1047700043EA92130B61C2F3C2030B7502F0070305
:104780004B75824B9B68C3F3074253098B75C2F389
:104790008203CB7593075B0F0B767C4B1B89C3F3AE
:1047A00007220B7E43EAD2130B760B695B1C4B642A
:1047B0000C7E4B6CA41C0125A5406B434B640C7A0A
:1047C0000123A3408B64D1E9113463434B6424E09B
:1047D0006C4B1B68022B20D16C4B1A7993069B0AF9
:1047E0000B616A4B9B681A0E0B6943EA02230B614B
:1047F000664B9B68C3F307420B6913430B61634B22
:104800001B89C3F307220B695B1C4FF40074A3FBE5
:1048100004344B644FF400738B64C2F3801301F8CB
:10482000193F93065B0E4B70584B1A7A4B7843EA4C
:10483000D2134B7002F07F038B70544BDB681A0E5F
:10484000D309CB70C2F341130B71C2F382034B71D6
:1048500093071B0F8B714D4BDB68C3F307428B79BA
:1048600043EA92138B71C2F34013CB7100230B7296
:1048700002F001034B72454B9B89C3F30722D30916
:104880008B72C2F38013CB72C2F340130B73C2F36B
:1048900000134B73C2F381038B7302F00303CB73DA
:1048A0003A4B1A7B53080B7401234B74384B1B682B
:1048B0001A0ECA741939364B1B68C3F30742140227
:1048C000CC85334B1B88C3F30722CB8D1343CB8599
:1048D0002F4B1A7814060C635B681A0E0B6B43EAB5
:1048E00002440C632A4B5B68C3F307420B6B43EA39
:1048F00002240C63264B9B88C3F307220B6B1343E4
:104900000B63234B1A7934235A54214B9B681A0E9C
:1049100035235A541E4B9B68C3F3074214068C631D
:104920001B4B1B89C3F307228B6B43EA02448C6346
:10493000174B1A7A8B6B43EA02248C63144BDB68A7
:104940001A0E8B6B13438B63114BDB68C3F3074267
:104950003C235B5C43EA12143C235C5413071C0D9C
:10496000CC870B4B9B89C3F30722CB8F1343CB8799
:10497000074B1A7B540840235C54012441235C54A8
:1049800030BD0000480000204C000020480D0020F1
:10499000580D00202DE9F84F4FF0000BDA4631207A
:1049A0008DF8000000208DF801008DF80200012034
:1049B0008DF803006846FEF707FAFFF759FB01215F
:1049C00040F20240FEF70AFCFFF75EFC00F0F6F949
:1049D0008246BAF1000F02D05046BDE8F88F00F0D1
:1049E00035F98246BAF1000F01D05046F5E751483B
:1049F000FFF766FE8246BAF1000F01D05046ECE7A1
:104A0000BAF1000F03D04C480068032811D149487F
:104A100090F84E0020B1474890F84E00012802D18E
:104A20004FF00A0B01E04FF0040B594643A002F08F
:104A300081FD454880F814B0002043490860486073
:104A40008860C86008610846FFF766FC3949B1F81C
:104A50004C10080400F08CFE8246BAF1000F01D021
:104A60005046BAE74FF40060FFF79EFC8246BAF169
:104A7000000F01D05046B0E7002000F093FE8246C0
:104A8000BAF1000F01D05046A7E70BF10200482110
:104A900091FBF0F421462DA002F04CFD254890F842
:104AA0004E0030B1012808D002280AD0032810D1C6
:104AB0000BE02AA002F03EFD0BE02EA002F03AFD32
:104AC00007E032A002F036FD03E036A002F032FD2E
:104AD00000BF00BF174890F82C1038A002F02AFD44
:104AE0001448B0F84C103CA002F024FD1148406C72
:104AF000810A3DA002F01EFD0E49486CFBF762FDE5
:104B0000804600223E4BFBF76BFC064600223D4BE5
:104B1000FBF7D8FC044622460B463BA002F00AFDF8
:104B20000448816C3EA002F005FD42A002F002FDA7
:104B3000504652E7AC0D002048000020636C6B64C7
:104B400069763A25640D0A00680D00205344494FE8
:104B50005F434B3A25644D487A0D0A004361726405
:104B600020547970653A534453432056312E310D09
:104B70000A0000004361726420547970653A53441E
:104B800053432056322E300D0A00000043617264F8
:104B900020547970653A534448432056322E300DE4
:104BA0000A0000004361726420547970653A4D4DEB
:104BB0004320436172640D0A000000004361726487
:104BC000204D616E75666163747572657249443A11
:104BD00025640D0A000000004361726420524341C5
:104BE0003A25640D0A00000043617264204361703D
:104BF00061636974793A2564204D420D0A00000012
:104C00000000F03F00003041436172642043617056
:104C100061636974793A252E33662047420D0A0094
:104C20004361726420426C6F636B53697A653A2505
:104C3000640D0A0053445F4361726420496E6974D5
:104C4000204F4B210D0A0D0A0000000038B500244A
:104C500001200090FFF73CFB10B92524204638BD09
:104C600051480068042828D00020504908600220DC
:104C70004860C02088600020C8604FF480600861F0
:104C80000846FFF767FBFCF763FA04460CB12046C1
:104C9000E5E70020FFF724FB454908600420FFF703
:104CA0001FFB434948600820FFF71AFB4049886012
:104CB0000C20FFF715FB3E49C8603B48006858B11F
:104CC00039480068012807D037480068062803D013
:104CD00035480068022816D10020344908600320B6
:104CE0004860402088600020C8604FF48060086100
:104CF0000846FFF72FFB69460320FCF76BFA0446D2
:104D00000CB12046ABE728480068032816D1BDF84F
:104D100000000004254908600320486040208860A6
:104D20000020C8604FF4806008610846FFF712FB5E
:104D3000FCF70EFA04460CB1204690E71A480068CA
:104D400004282ED0BDF800001A490860BDF8000004
:104D500000041649086009204860C02088600020CF
:104D6000C8604FF4806008610846FFF7F3FAFCF76B
:104D7000EFF904460CB1204671E70020FFF7B0FAC6
:104D80000D4908600420FFF7ABFA0B494860082082
:104D9000FFF7A6FA084988600C20FFF7A1FA064938
:104DA000C860002420465AE748000020800D0020FB
:104DB000580D00204C000020480D00202DE9F04146
:104DC0000024002600250027A046B2207649087559
:104DD0000020086048608860C86008610846FFF7E6
:104DE0009BFA0320FFF7CCFA0120FFF7F5F900202A
:104DF0006E49086048608860C8604FF48060086150
:104E00000846FFF7A7FAFCF7F3F80446214668A026
:104E100002F090FB14B12046BDE8F0814FF4D5704C
:104E20006249086008204860402088600020C8600F
:104E30004FF4806008610846FFF78CFAFCF718FA17
:104E4000044621465FA002F075FB2CB9012062499F
:104E500008604FF0804812E0002054490860372075
:104E60004860402088600020C8604FF4806008617E
:104E70000846FFF76FFA3720FCF7D0F80446002009
:104E80004A49086037204860402088600020C86098
:104E90004FF4806008610846FFF75CFA3720FCF7A2
:104EA000BDF8044621464DA002F044FB002C4BD136
:104EB00036E000203D490860372048604020886087
:104EC0000020C8604FF4806008610846FFF742FA8E
:104ED0003720FCF7A3F804460CB120469CE7444871
:104EE00048EA000031490860292048604020886075
:104EF0000020C8604FF4806008610846FFF72AFA76
:104F0000FCF74CF904460CB1204685E70020FFF77A
:104F1000E7F90646012080EAD67080F001076D1C93
:104F20001FB94FF6FF708542C3D34FF6FF7085421D
:104F300002D31B2420466FE706F08040061E30D0C7
:104F40000220254908602CE01CE02A481749086027
:104F500001204860402088600020C8604FF48060D5
:104F600008610846FFF7F6F9FCF718F904460CB19A
:104F7000204651E720484669012080EAD67080F03B
:104F800001076D1C1FB94FF6FF708542DDD34FF648
:104F9000FF70854202D31B2420463DE703200E49C3
:104FA0000860204638E70000680D0020800D0020D2
:104FB0006572726F72737461747573313A25640D22
:104FC0000A0000006572726F7273746174757332D7
:104FD0003A25640D0A000000480000206572726FD7
:104FE00072737461747573333A25640D0A0000009E
:104FF000000010800080FF80008001402DE9F84F04
:105000008246174698460A9C4FF00009CB46554603
:1050100000200090461EBAF1000F04D14FF026097F
:105020004846BDE8F88F00209149C8629148006861
:10503000022808D104020202002338464146FBF749
:10504000C4F80746884600208B49886048608B4832
:105050000860012048610020C86008610846FFF729
:10506000FBF80020FFF73CF900F0007018B14FF09A
:105070000E094846D5E7002C21DDB4F5006F1EDC93
:10508000601E2040D8B9204603F0DAF900907C4831
:10509000046010207A494860402088600020C86081
:1050A0004FF4806008610846FFF754F91020FBF7C1
:1050B000B5FF8146B9F1000F05D04846B1E74FF082
:1050C00026094846ADE7009800016B49886008460C
:1050D00044606A480860012048610220C8600020DE
:1050E00008610846FFF7B8F8654807601120644971
:1050F0004860402088600020C8604FF480600861EC
:105100000846FFF727F91120FBF788FF8146B9F120
:10511000000F01D0484684E75A480068002873D140
:10512000FDF744F918E04FF40040FFF7C5F878B1F7
:105130004FF0000B06E04E488030006845F82B0029
:105140000BF1010BBBF1080FF5D320354E4E03E0F8
:105150000EB9042065E7761E4548406B40F22A618F
:1051600008400028DFD00820FFF7A6F850B108203B
:10517000FFF72CF8494645A002F0DCF9FDF71BF9D2
:1051800004204EE70220FFF797F850B10220FFF706
:105190001DF8494647A002F0CDF9FDF70CF90220B1
:1051A0003FE72020FFF788F850B12020FFF70EF8E6
:1051B00049464AA002F0BEF9FDF7FDF8062030E7A7
:1051C0004FF40070FFF778F858B14FF40070FEF715
:1051D000FDFF49464BA002F0ADF9FDF7ECF80720C2
:1051E0001FE703E0FFF7B0F828602D1D4FF4001013
:1051F000FFF762F80028F5D1FDF7DDF840F2FF5027
:10520000FEF7E4FF32E0FFE71E48006801282DD1D9
:10521000002221465046FEF7EBFF0020434908706C
:1052200043490860434908601148C06B40F22A3185
:1052300008430F49C8630120FEF7D4FF00E0761E43
:105240003D48006800F4005038B93A48006820B979
:105250003648007808B9002EF1D10EB90420E0E6F6
:105260003248007810B1314890F800904846D8E6AE
:105270000080014048000020940D0020FFFF0F0037
:10528000800D002050000020FFFF7F005344494F55
:105290005F466C61675F4454494D454F55542E45F8
:1052A00072726F727374617475733A307825780D09
:1052B0000A0000005344494F5F464C41475F444356
:1052C00052434641494C2E4572726F727374617439
:1052D00075733A307825780D0A0000005344494F21
:1052E0005F464C41475F52584F564552522E4572C9
:1052F000726F727374617475733A307825780D0A21
:10530000000000005344494F5F464C41475F5354EF
:105310004249544552522E4572726F7273746174D1
:1053200075733A307825780D0A000000640000207B
:105330005800002068000020000402402DE9FE4FC4
:1053400083460C46914600200290002625462C46B6
:10535000700240EAD5566D020BF00300F0B14FF039
:10536000000A18E04FF4007000904FEA4A204719F5
:1053700046EBE0733A461648FFF740FE02904FF4C2
:10538000007213495846FAF751FF0BF5007B0AF1FA
:10539000010000F0FF0ACA45E4DB16E0B9F1010F95
:1053A00009D14FF400702A46334600905846FFF763
:1053B00025FE029009E04FF400702A463346CDE9FD
:1053C0000009584600F006F802900298BDE8FE8FEA
:1053D000FC0D00202DE9F84F814617469846DDE97F
:1053E0000A454FF0000AD3464E4600200090B9F11E
:1053F000000F04D14FF0260A5046BDE8F88F002078
:10540000B2490870B2490860B2490860B248B3496D
:105410000860002048608860C860086148610846EC
:10542000FEF71AFF0020FEF7DDFE0020FEF758FF12
:1054300000F0007018B14FF00E0A5046DDE7A848A2
:105440000068022808D104020202002338464146BF
:10545000FAF78AFE07468846002C21DDB4F5006F76
:105460001EDC601E2040D8B9204602F0E9FF009003
:105470009C48046010209B494860402088600020C0
:10548000C8604FF4806008610846FEF763FF102093
:10549000FBF7C4FD8246BAF1000F05D05046ACE7D9
:1054A0004FF0260A5046A8E7012D76D905FB04F0F7
:1054B000B0F1007F03D34FF0260A50469DE705FB6D
:1054C00004F0844908600120874908608748C0F8D3
:1054D000009081488149086005FB04F0486000980D
:1054E000000188600220C860002008610120486136
:1054F0000846FEF7B1FE7B480760122079494860F4
:10550000402088600020C8604FF480600861084631
:10551000FEF720FF1220FBF781FD8246BAF1000F53
:1055200001D0504669E77248006800287ED1FCF738
:105530003DFF11E04FF40040FEF7BEFE60B14FF0BA
:10554000000B05E0FEF700FF46F82B000BF1010B06
:10555000BBF1080FF6D320366648406B40F22A3183
:1055600008400028E6D00820FEF7A6FE40B108203B
:10557000FEF72CFE4FF0040AFCF71DFF50463CE7F7
:105580000220FEF799FE48B10220FEF71FFE4FF001
:10559000020AFCF710FF50462FE795E02020FEF7A7
:1055A0008BFE40B12020FEF711FE4FF0060AFCF7FB
:1055B00002FF504621E74FF40070FEF77DFE48B130
:1055C0004FF40070FEF702FE4FF0070AFCF7F3FEFF
:1055D000504612E703E0FEF7B7FE3060361D4FF489
:1055E0000010FEF769FE0028F5D14FF48070FEF739
:1055F00063FE30B33A48006838B139480068022881
:1056000003D03748006801281BD1002035490860C5
:105610000C204860402088600020C8604FF4806003
:1056200008610846FEF796FE0C2000E010E0FBF74C
:10563000F5FC8246BAF1000F03D0FCF7BCFE5046E1
:10564000DBE6FCF7B8FE40F2FF50FEF7BFFD3BE0A3
:1056500027480068022812D1012148F22A30FEF7BB
:105660004BFE00BF1A48006818B918480078002897
:10567000F8D01648007838B314480078BDE61C48C6
:105680000068012820D1012140F22A30FEF734FEC3
:105690000120FEF7A7FD05FB04F14846FBF756FF86
:1056A00000BF1548FBF71EFF0028FAD000BF0848CE
:1056B000006818B9054800780028F8D00348007839
:1056C00010B10248007898E6504696E66400002043
:1056D0006800002054000020FFFF0F00940D002000
:1056E00048000020800D00205800002060000020AD
:1056F000500000200080014000200010F0B5ADF502
:10570000017D0027002400260125690201A8FAF77F
:10571000A6FD00BF00BF31460CA001F00BFF2A46DA
:10572000314601A8FFF70AFE68B900BF05E001A8ED
:10573000015D0DA001F0FEFE641CB4F5007FF6D300
:105740000AA001F0F7FE0DF5017DF0BD54657374FC
:10575000312D2D2D3E3E3E5265616420256420731F
:105760006563746F723A2000257820000D0A0000EE
:1057700070B5044600250A480460072008494860BF
:10578000402088600020C8604FF4806008610846AF
:10579000FEF7E0FD0720FBF741FC0546284670BDFB
:1057A000800D002001460020012902D0022900D0EE
:1057B00011B9024A116000E0262070475000002015
:1057C0002DE9FF5F86B017469846149D00260020FD
:1057D0000590049000248146039082460290019532
:1057E000DDF818B0DDF818B0BBF1000F03D12620AA
:1057F0000AB0BDE8F09F0020C749C862C749886069
:105800004860C7480860012048610020C8600861FE
:105810000846FEF721FDC048406900F0007008B15D
:105820000E20E5E7BF480068022805D10502780A86
:1058300040EAC8574FEA6828002D1FDDB5F5006F14
:105840001CDC681E2840C8B9284602F0F9FD059006
:10585000B54805601020B4494860402088600020A9
:10586000C8604FF4806008610846FEF773FD1020A1
:10587000FBF7D4FB06461EB13046B9E72620B7E752
:10588000AA4800880004A84908600D20486040200C
:1058900088600020C8604FF4806008610846FEF709
:1058A00059FD0D20FBF7BAFB06460EB130469FE7C7
:1058B0009948406903909A4C1BE0641E9B480088FD
:1058C0000004994908600D2048604020886000204D
:1058D000C8604FF4806008610846FEF73BFD0D206C
:1058E000FBF79CFB06460EB1304681E78A484069CB
:1058F0000390039800F4807008B9002CDDD10CB936
:10590000292075E7884807601820874948604020AB
:1059100088600020C8604FF4806008610846FEF788
:1059200019FD1820FBF77AFB06460EB130465FE7FB
:1059300000207F4908600598000178498860084682
:10594000456077480860012048610020C860086110
:105950000846FEF781FC4FF0FF34764800680028C7
:105960007BD1FCF723FD43E04FF48040FEF7A4FC1D
:10597000C8B30198A0EB0900202821D20198A0EB20
:10598000090000F0030020B90198A0EB090080088D
:1059900004E00198A0EB09008008401C02904FF041
:1059A000000A09E0DBF80000FEF7F8FC0AF1010A42
:1059B0000BF1040B09F1040902988245F2D30FE0C0
:1059C0004FF0000A05E05BF82A00FEF7E7FC0AF159
:1059D000010ABAF1080FF6D30BF1200B09F12009E7
:1059E0006FF0404404E0FFE70CB9042000E7641EB8
:1059F0004948406B40F21A6108400028B4D00820A2
:105A0000FEF75AFC30B10820FEF7E0FBFCF7D3FCB0
:105A10000420EDE60220FEF74FFC30B10220FEF735
:105A2000D5FBFCF7C8FC0220E2E61020FEF744FCA0
:105A300030B11020FEF7CAFBFCF7BDFC0520D7E60D
:105A40004FF40070FEF738FC40B14FF40070FEF7E1
:105A5000BDFBFCF7B0FC0720CAE606E0FCF7ABFC98
:105A600040F2FF502C4988633EE03248006801282C
:105A70003AD1102229460698FEF7BAFB00202E499B
:105A800008702B4908602D4908602348C06B40F21C
:105A90001A3108432049C8630846C06A40F008002C
:105AA000C86200E0641E2648006800F4005008B98F
:105AB000002CF7D11CB9FEF76DFF042098E64FF0DB
:105AC000FF3400E0641E1D48006820B91A480078C1
:105AD00008B9002CF6D10CB9042089E616480078E4
